{
  "_format": "hh3-artifact-1",
  "contractName": "VotingV2",
  "sourceName": "contracts/VotingV2.sol",
  "abi": [
    {
      "inputs": [],
      "stateMutability": "nonpayable",
      "type": "constructor"
    },
    {
      "anonymous": false,
      "inputs": [
        {
          "indexed": false,
          "internalType": "uint256",
          "name": "totalVotes",
          "type": "uint256"
        }
      ],
      "name": "ElectionEnded",
      "type": "event"
    },
    {
      "anonymous": false,
      "inputs": [
        {
          "indexed": true,
          "internalType": "string",
          "name": "voterId",
          "type": "string"
        },
        {
          "indexed": true,
          "internalType": "uint256",
          "name": "candidateId",
          "type": "uint256"
        }
      ],
      "name": "VoteCast",
      "type": "event"
    },
    {
      "inputs": [
        {
          "internalType": "string",
          "name": "_name",
          "type": "string"
        }
      ],
      "name": "addCandidate",
      "outputs": [],
      "stateMutability": "nonpayable",
      "type": "function"
    },
    {
      "inputs": [],
      "name": "admin",
      "outputs": [
        {
          "internalType": "address",
          "name": "",
          "type": "address"
        }
      ],
      "stateMutability": "view",
      "type": "function"
    },
    {
      "inputs": [
        {
          "internalType": "uint256",
          "name": "",
          "type": "uint256"
        }
      ],
      "name": "candidates",
      "outputs": [
        {
          "internalType": "uint256",
          "name": "id",
          "type": "uint256"
        },
        {
          "internalType": "string",
          "name": "name",
          "type": "string"
        },
        {
          "internalType": "uint256",
          "name": "voteCount",
          "type": "uint256"
        }
      ],
      "stateMutability": "view",
      "type": "function"
    },
    {
      "inputs": [],
      "name": "electionActive",
      "outputs": [
        {
          "internalType": "bool",
          "name": "",
          "type": "bool"
        }
      ],
      "stateMutability": "view",
      "type": "function"
    },
    {
      "inputs": [],
      "name": "endElection",
      "outputs": [],
      "stateMutability": "nonpayable",
      "type": "function"
    },
    {
      "inputs": [],
      "name": "getAllCandidates",
      "outputs": [
        {
          "components": [
            {
              "internalType": "uint256",
              "name": "id",
              "type": "uint256"
            },
            {
              "internalType": "string",
              "name": "name",
              "type": "string"
            },
            {
              "internalType": "uint256",
              "name": "voteCount",
              "type": "uint256"
            }
          ],
          "internalType": "struct VotingV2.Candidate[]",
          "name": "",
          "type": "tuple[]"
        }
      ],
      "stateMutability": "view",
      "type": "function"
    },
    {
      "inputs": [
        {
          "internalType": "string",
          "name": "",
          "type": "string"
        }
      ],
      "name": "hasVoted",
      "outputs": [
        {
          "internalType": "bool",
          "name": "",
          "type": "bool"
        }
      ],
      "stateMutability": "view",
      "type": "function"
    },
    {
      "inputs": [],
      "name": "officialSigner",
      "outputs": [
        {
          "internalType": "address",
          "name": "",
          "type": "address"
        }
      ],
      "stateMutability": "view",
      "type": "function"
    },
    {
      "inputs": [
        {
          "internalType": "address",
          "name": "_signer",
          "type": "address"
        }
      ],
      "name": "setOfficialSigner",
      "outputs": [],
      "stateMutability": "nonpayable",
      "type": "function"
    },
    {
      "inputs": [],
      "name": "startElection",
      "outputs": [],
      "stateMutability": "nonpayable",
      "type": "function"
    },
    {
      "inputs": [],
      "name": "totalCandidates",
      "outputs": [
        {
          "internalType": "uint256",
          "name": "",
          "type": "uint256"
        }
      ],
      "stateMutability": "view",
      "type": "function"
    },
    {
      "inputs": [],
      "name": "totalVotes",
      "outputs": [
        {
          "internalType": "uint256",
          "name": "",
          "type": "uint256"
        }
      ],
      "stateMutability": "view",
      "type": "function"
    },
    {
      "inputs": [
        {
          "internalType": "uint256",
          "name": "_candidateId",
          "type": "uint256"
        },
        {
          "internalType": "string",
          "name": "_voterId",
          "type": "string"
        }
      ],
      "name": "vote",
      "outputs": [],
      "stateMutability": "nonpayable",
      "type": "function"
    }
  ],
  "bytecode": "0x6080604052348015600e575f5ffd5b503360015f6101000a81548173ffffffffffffffffffffffffffffffffffffffff021916908373ffffffffffffffffffffffffffffffffffffffff1602179055505f600160146101000a81548160ff0219169083151502179055506117df806100765f395ff3fe608060405234801561000f575f5ffd5b50600436106100cd575f3560e01c8063462e91ec1161008a5780637ed628bb116100645780637ed628bb146101d9578063c62291b7146101f7578063ed98c9c514610215578063f851a44014610231576100cd565b8063462e91ec146101a957806359f78468146101c557806362d73eb8146101cf576100cd565b80630d15fd77146100d157806324108475146100ef5780632e6997fe1461010b5780633477ee2e146101295780633866965c1461015b57806339bfeae314610179575b5f5ffd5b6100d961024f565b6040516100e69190610b8a565b60405180910390f35b61010960048036038101906101049190610d1a565b610255565b005b6101136104aa565b6040516101209190610eeb565b60405180910390f35b610143600480360381019061013e9190610f0b565b610618565b60405161015293929190610f7e565b60405180910390f35b6101636106c4565b6040516101709190610b8a565b60405180910390f35b610193600480360381019061018e9190610fba565b6106ca565b6040516101a0919061101b565b60405180910390f35b6101c360048036038101906101be9190610fba565b6106ff565b005b6101cd610803565b005b6101d76108e7565b005b6101e1610a26565b6040516101ee919061101b565b60405180910390f35b6101ff610a39565b60405161020c9190611073565b60405180910390f35b61022f600480360381019061022a91906110b6565b610a5d565b005b610239610b2e565b6040516102469190611073565b60405180910390f35b60035481565b5f5f9054906101000a900473ffffffffffffffffffffffffffffffffffffffff1673ffffffffffffffffffffffffffffffffffffffff163373ffffffffffffffffffffffffffffffffffffffff16146102e3576040517f08c379a00000000000000000000000000000000000000000000000000000000081526004016102da9061112b565b60405180910390fd5b600160149054906101000a900460ff16610332576040517f08c379a000000000000000000000000000000000000000000000000000000000815260040161032990611193565b60405180910390fd5b60058160405161034291906111eb565b90815260200160405180910390205f9054906101000a900460ff161561039d576040517f08c379a00000000000000000000000000000000000000000000000000000000081526004016103949061124b565b60405180910390fd5b5f821180156103ae57506002548211155b6103ed576040517f08c379a00000000000000000000000000000000000000000000000000000000081526004016103e4906112b3565b60405180910390fd5b60016005826040516103ff91906111eb565b90815260200160405180910390205f6101000a81548160ff02191690831515021790555060045f8381526020019081526020015f206002015f815480929190610447906112fe565b919050555060035f81548092919061045e906112fe565b9190505550818160405161047291906111eb565b60405180910390207f777e12406713e556f995ae7467576ea751d01f243ff84668ef43b36634f3fa8860405160405180910390a35050565b60605f60025467ffffffffffffffff8111156104c9576104c8610bf6565b5b60405190808252806020026020018201604052801561050257816020015b6104ef610b53565b8152602001906001900390816104e75790505b5090505f600190505b60025481116106105760045f8281526020019081526020015f206040518060600160405290815f820154815260200160018201805461054990611372565b80601f016020809104026020016040519081016040528092919081815260200182805461057590611372565b80156105c05780601f10610597576101008083540402835291602001916105c0565b820191905f5260205f20905b8154815290600101906020018083116105a357829003601f168201915b50505050508152602001600282015481525050826001836105e191906113a2565b815181106105f2576105f16113d5565b5b60200260200101819052508080610608906112fe565b91505061050b565b508091505090565b6004602052805f5260405f205f91509050805f01549080600101805461063d90611372565b80601f016020809104026020016040519081016040528092919081815260200182805461066990611372565b80156106b45780601f1061068b576101008083540402835291602001916106b4565b820191905f5260205f20905b81548152906001019060200180831161069757829003601f168201915b5050505050908060020154905083565b60025481565b6005818051602081018201805184825260208301602085012081835280955050505050505f915054906101000a900460ff1681565b60015f9054906101000a900473ffffffffffffffffffffffffffffffffffffffff1673ffffffffffffffffffffffffffffffffffffffff163373ffffffffffffffffffffffffffffffffffffffff161461078e576040517f08c379a00000000000000000000000000000000000000000000000000000000081526004016107859061144c565b60405180910390fd5b60025f8154809291906107a0906112fe565b9190505550604051806060016040528060025481526020018281526020015f81525060045f60025481526020019081526020015f205f820151815f015560208201518160010190816107f2919061160a565b506040820151816002015590505050565b60015f9054906101000a900473ffffffffffffffffffffffffffffffffffffffff1673ffffffffffffffffffffffffffffffffffffffff163373ffffffffffffffffffffffffffffffffffffffff1614610892576040517f08c379a00000000000000000000000000000000000000000000000000000000081526004016108899061144c565b60405180910390fd5b5f600160146101000a81548160ff0219169083151502179055507f562cd572b2ba3b666cd989fc4ca98419ec81e75f04528df9d9d76fdb7807ee716003546040516108dd9190610b8a565b60405180910390a1565b60015f9054906101000a900473ffffffffffffffffffffffffffffffffffffffff1673ffffffffffffffffffffffffffffffffffffffff163373ffffffffffffffffffffffffffffffffffffffff1614610976576040517f08c379a000000000000000000000000000000000000000000000000000000000815260040161096d9061144c565b60405180910390fd5b600160149054906101000a900460ff16156109c6576040517f08c379a00000000000000000000000000000000000000000000000000000000081526004016109bd90611723565b60405180910390fd5b5f60025411610a0a576040517f08c379a0000000000000000000000000000000000000000000000000000000008152600401610a019061178b565b60405180910390fd5b60018060146101000a81548160ff021916908315150217905550565b600160149054906101000a900460ff1681565b5f5f9054906101000a900473ffffffffffffffffffffffffffffffffffffffff1681565b60015f9054906101000a900473ffffffffffffffffffffffffffffffffffffffff1673ffffffffffffffffffffffffffffffffffffffff163373ffffffffffffffffffffffffffffffffffffffff1614610aec576040517f08c379a0000000000000000000000000000000000000000000000000000000008152600401610ae39061144c565b60405180910390fd5b805f5f6101000a81548173ffffffffffffffffffffffffffffffffffffffff021916908373ffffffffffffffffffffffffffffffffffffffff16021790555050565b60015f9054906101000a900473ffffffffffffffffffffffffffffffffffffffff1681565b60405180606001604052805f8152602001606081526020015f81525090565b5f819050919050565b610b8481610b72565b82525050565b5f602082019050610b9d5f830184610b7b565b92915050565b5f604051905090565b5f5ffd5b5f5ffd5b610bbd81610b72565b8114610bc7575f5ffd5b50565b5f81359050610bd881610bb4565b92915050565b5f5ffd5b5f5ffd5b5f601f19601f8301169050919050565b7f4e487b71000000000000000000000000000000000000000000000000000000005f52604160045260245ffd5b610c2c82610be6565b810181811067ffffffffffffffff82111715610c4b57610c4a610bf6565b5b80604052505050565b5f610c5d610ba3565b9050610c698282610c23565b919050565b5f67ffffffffffffffff821115610c8857610c87610bf6565b5b610c9182610be6565b9050602081019050919050565b828183375f83830152505050565b5f610cbe610cb984610c6e565b610c54565b905082815260208101848484011115610cda57610cd9610be2565b5b610ce5848285610c9e565b509392505050565b5f82601f830112610d0157610d00610bde565b5b8135610d11848260208601610cac565b91505092915050565b5f5f60408385031215610d3057610d2f610bac565b5b5f610d3d85828601610bca565b925050602083013567ffffffffffffffff811115610d5e57610d5d610bb0565b5b610d6a85828601610ced565b9150509250929050565b5f81519050919050565b5f82825260208201905092915050565b5f819050602082019050919050565b610da681610b72565b82525050565b5f81519050919050565b5f82825260208201905092915050565b8281835e5f83830152505050565b5f610dde82610dac565b610de88185610db6565b9350610df8818560208601610dc6565b610e0181610be6565b840191505092915050565b5f606083015f830151610e215f860182610d9d565b5060208301518482036020860152610e398282610dd4565b9150506040830151610e4e6040860182610d9d565b508091505092915050565b5f610e648383610e0c565b905092915050565b5f602082019050919050565b5f610e8282610d74565b610e8c8185610d7e565b935083602082028501610e9e85610d8e565b805f5b85811015610ed95784840389528151610eba8582610e59565b9450610ec583610e6c565b925060208a01995050600181019050610ea1565b50829750879550505050505092915050565b5f6020820190508181035f830152610f038184610e78565b905092915050565b5f60208284031215610f2057610f1f610bac565b5b5f610f2d84828501610bca565b91505092915050565b5f82825260208201905092915050565b5f610f5082610dac565b610f5a8185610f36565b9350610f6a818560208601610dc6565b610f7381610be6565b840191505092915050565b5f606082019050610f915f830186610b7b565b8181036020830152610fa38185610f46565b9050610fb26040830184610b7b565b949350505050565b5f60208284031215610fcf57610fce610bac565b5b5f82013567ffffffffffffffff811115610fec57610feb610bb0565b5b610ff884828501610ced565b91505092915050565b5f8115159050919050565b61101581611001565b82525050565b5f60208201905061102e5f83018461100c565b92915050565b5f73ffffffffffffffffffffffffffffffffffffffff82169050919050565b5f61105d82611034565b9050919050565b61106d81611053565b82525050565b5f6020820190506110865f830184611064565b92915050565b61109581611053565b811461109f575f5ffd5b50565b5f813590506110b08161108c565b92915050565b5f602082840312156110cb576110ca610bac565b5b5f6110d8848285016110a2565b91505092915050565b7f4e6f7420617574686f72697a6564206b696f736b207369676e657200000000005f82015250565b5f611115601b83610f36565b9150611120826110e1565b602082019050919050565b5f6020820190508181035f83015261114281611109565b9050919050565b7f456c656374696f6e206973206e6f7420616374697665000000000000000000005f82015250565b5f61117d601683610f36565b915061118882611149565b602082019050919050565b5f6020820190508181035f8301526111aa81611171565b9050919050565b5f81905092915050565b5f6111c582610dac565b6111cf81856111b1565b93506111df818560208601610dc6565b80840191505092915050565b5f6111f682846111bb565b915081905092915050565b7f5468697320766f7465722049442068617320616c726561647920766f7465642e5f82015250565b5f611235602083610f36565b915061124082611201565b602082019050919050565b5f6020820190508181035f83015261126281611229565b9050919050565b7f496e76616c69642063616e6469646174652e00000000000000000000000000005f82015250565b5f61129d601283610f36565b91506112a882611269565b602082019050919050565b5f6020820190508181035f8301526112ca81611291565b9050919050565b7f4e487b71000000000000000000000000000000000000000000000000000000005f52601160045260245ffd5b5f61130882610b72565b91507fffffffffffffffffffffffffffffffffffffffffffffffffffffffffffffffff820361133a576113396112d1565b5b600182019050919050565b7f4e487b71000000000000000000000000000000000000000000000000000000005f52602260045260245ffd5b5f600282049050600182168061138957607f821691505b60208210810361139c5761139b611345565b5b50919050565b5f6113ac82610b72565b91506113b783610b72565b92508282039050818111156113cf576113ce6112d1565b5b92915050565b7f4e487b71000000000000000000000000000000000000000000000000000000005f52603260045260245ffd5b7f4f6e6c792061646d696e2063616e20646f2074686973000000000000000000005f82015250565b5f611436601683610f36565b915061144182611402565b602082019050919050565b5f6020820190508181035f8301526114638161142a565b9050919050565b5f819050815f5260205f209050919050565b5f6020601f8301049050919050565b5f82821b905092915050565b5f600883026114c67fffffffffffffffffffffffffffffffffffffffffffffffffffffffffffffffff8261148b565b6114d0868361148b565b95508019841693508086168417925050509392505050565b5f819050919050565b5f61150b61150661150184610b72565b6114e8565b610b72565b9050919050565b5f819050919050565b611524836114f1565b61153861153082611512565b848454611497565b825550505050565b5f5f905090565b61154f611540565b61155a81848461151b565b505050565b5b8181101561157d576115725f82611547565b600181019050611560565b5050565b601f8211156115c2576115938161146a565b61159c8461147c565b810160208510156115ab578190505b6115bf6115b78561147c565b83018261155f565b50505b505050565b5f82821c905092915050565b5f6115e25f19846008026115c7565b1980831691505092915050565b5f6115fa83836115d3565b9150826002028217905092915050565b61161382610dac565b67ffffffffffffffff81111561162c5761162b610bf6565b5b6116368254611372565b611641828285611581565b5f60209050601f831160018114611672575f8415611660578287015190505b61166a85826115ef565b8655506116d1565b601f1984166116808661146a565b5f5b828110156116a757848901518255600182019150602085019450602081019050611682565b868310156116c457848901516116c0601f8916826115d3565b8355505b6001600288020188555050505b505050505050565b7f456c656374696f6e20616c7265616479206163746976650000000000000000005f82015250565b5f61170d601783610f36565b9150611718826116d9565b602082019050919050565b5f6020820190508181035f83015261173a81611701565b9050919050565b7f4d7573742068617665206174206c65617374206f6e652063616e6469646174655f82015250565b5f611775602083610f36565b915061178082611741565b602082019050919050565b5f6020820190508181035f8301526117a281611769565b905091905056fea26469706673582212203a2648d4fd7e77f864166a725b07f4c28724176a60967139fa079086db624db864736f6c634300081c0033",
  "linkReferences": {},
  "deployedLinkReferences": {},
  "immutableReferences": {},
  "inputSourceName": "project/contracts/VotingV2.sol",
  "buildInfoId": "solc-0_8_28-3d0ece9980fb452bb0f8728a2a6ec00c068b1a70"
}