{
  "_format": "hh3-artifact-1",
  "contractName": "VotingV2",
  "sourceName": "contracts/VotingV2.sol",
  "abi": [
    {
      "inputs": [],
      "stateMutability": "nonpayable",
      "type": "constructor"
    },
    {
      "anonymous": false,
      "inputs": [
        {
          "indexed": false,
          "internalType": "uint256",
          "name": "totalVotes",
          "type": "uint256"
        }
      ],
      "name": "ElectionEnded",
      "type": "event"
    },
    {
      "anonymous": false,
      "inputs": [
        {
          "indexed": true,
          "internalType": "string",
          "name": "voterId",
          "type": "string"
        },
        {
          "indexed": true,
          "internalType": "uint256",
          "name": "candidateId",
          "type": "uint256"
        }
      ],
      "name": "VoteCast",
      "type": "event"
    },
    {
      "inputs": [
        {
          "internalType": "string",
          "name": "_name",
          "type": "string"
        }
      ],
      "name": "addCandidate",
      "outputs": [],
      "stateMutability": "nonpayable",
      "type": "function"
    },
    {
      "inputs": [],
      "name": "admin",
      "outputs": [
        {
          "internalType": "address",
          "name": "",
          "type": "address"
        }
      ],
      "stateMutability": "view",
      "type": "function"
    },
    {
      "inputs": [
        {
          "internalType": "uint256",
          "name": "",
          "type": "uint256"
        }
      ],
      "name": "candidates",
      "outputs": [
        {
          "internalType": "uint256",
          "name": "id",
          "type": "uint256"
        },
        {
          "internalType": "string",
          "name": "name",
          "type": "string"
        },
        {
          "internalType": "uint256",
          "name": "voteCount",
          "type": "uint256"
        }
      ],
      "stateMutability": "view",
      "type": "function"
    },
    {
      "inputs": [],
      "name": "electionActive",
      "outputs": [
        {
          "internalType": "bool",
          "name": "",
          "type": "bool"
        }
      ],
      "stateMutability": "view",
      "type": "function"
    },
    {
      "inputs": [],
      "name": "endElection",
      "outputs": [],
      "stateMutability": "nonpayable",
      "type": "function"
    },
    {
      "inputs": [],
      "name": "getAllCandidates",
      "outputs": [
        {
          "components": [
            {
              "internalType": "uint256",
              "name": "id",
              "type": "uint256"
            },
            {
              "internalType": "string",
              "name": "name",
              "type": "string"
            },
            {
              "internalType": "uint256",
              "name": "voteCount",
              "type": "uint256"
            }
          ],
          "internalType": "struct VotingV2.Candidate[]",
          "name": "",
          "type": "tuple[]"
        }
      ],
      "stateMutability": "view",
      "type": "function"
    },
    {
      "inputs": [
        {
          "internalType": "string",
          "name": "",
          "type": "string"
        }
      ],
      "name": "hasVoted",
      "outputs": [
        {
          "internalType": "bool",
          "name": "",
          "type": "bool"
        }
      ],
      "stateMutability": "view",
      "type": "function"
    },
    {
      "inputs": [],
      "name": "officialSigner",
      "outputs": [
        {
          "internalType": "address",
          "name": "",
          "type": "address"
        }
      ],
      "stateMutability": "view",
      "type": "function"
    },
    {
      "inputs": [
        {
          "internalType": "address",
          "name": "_signer",
          "type": "address"
        }
      ],
      "name": "setOfficialSigner",
      "outputs": [],
      "stateMutability": "nonpayable",
      "type": "function"
    },
    {
      "inputs": [],
      "name": "totalCandidates",
      "outputs": [
        {
          "internalType": "uint256",
          "name": "",
          "type": "uint256"
        }
      ],
      "stateMutability": "view",
      "type": "function"
    },
    {
      "inputs": [],
      "name": "totalVotes",
      "outputs": [
        {
          "internalType": "uint256",
          "name": "",
          "type": "uint256"
        }
      ],
      "stateMutability": "view",
      "type": "function"
    },
    {
      "inputs": [
        {
          "internalType": "uint256",
          "name": "_candidateId",
          "type": "uint256"
        },
        {
          "internalType": "string",
          "name": "_voterId",
          "type": "string"
        }
      ],
      "name": "vote",
      "outputs": [],
      "stateMutability": "nonpayable",
      "type": "function"
    }
  ],
  "bytecode": "0x6080604052348015600e575f5ffd5b503360015f6101000a81548173ffffffffffffffffffffffffffffffffffffffff021916908373ffffffffffffffffffffffffffffffffffffffff16021790555060018060146101000a81548160ff0219169083151502179055506115ab806100765f395ff3fe608060405234801561000f575f5ffd5b50600436106100b2575f3560e01c8063462e91ec1161006f578063462e91ec1461018e57806359f78468146101aa5780637ed628bb146101b4578063c62291b7146101d2578063ed98c9c5146101f0578063f851a4401461020c576100b2565b80630d15fd77146100b657806324108475146100d45780632e6997fe146100f05780633477ee2e1461010e5780633866965c1461014057806339bfeae31461015e575b5f5ffd5b6100be61022a565b6040516100cb9190610a26565b60405180910390f35b6100ee60048036038101906100e99190610bb6565b610230565b005b6100f8610485565b6040516101059190610d87565b60405180910390f35b61012860048036038101906101239190610da7565b6105f3565b60405161013793929190610e1a565b60405180910390f35b61014861069f565b6040516101559190610a26565b60405180910390f35b61017860048036038101906101739190610e56565b6106a5565b6040516101859190610eb7565b60405180910390f35b6101a860048036038101906101a39190610e56565b6106da565b005b6101b26107de565b005b6101bc6108c2565b6040516101c99190610eb7565b60405180910390f35b6101da6108d5565b6040516101e79190610f0f565b60405180910390f35b61020a60048036038101906102059190610f52565b6108f9565b005b6102146109ca565b6040516102219190610f0f565b60405180910390f35b60035481565b5f5f9054906101000a900473ffffffffffffffffffffffffffffffffffffffff1673ffffffffffffffffffffffffffffffffffffffff163373ffffffffffffffffffffffffffffffffffffffff16146102be576040517f08c379a00000000000000000000000000000000000000000000000000000000081526004016102b590610fc7565b60405180910390fd5b600160149054906101000a900460ff1661030d576040517f08c379a00000000000000000000000000000000000000000000000000000000081526004016103049061102f565b60405180910390fd5b60058160405161031d9190611087565b90815260200160405180910390205f9054906101000a900460ff1615610378576040517f08c379a000000000000000000000000000000000000000000000000000000000815260040161036f906110e7565b60405180910390fd5b5f8211801561038957506002548211155b6103c8576040517f08c379a00000000000000000000000000000000000000000000000000000000081526004016103bf9061114f565b60405180910390fd5b60016005826040516103da9190611087565b90815260200160405180910390205f6101000a81548160ff02191690831515021790555060045f8381526020019081526020015f206002015f8154809291906104229061119a565b919050555060035f8154809291906104399061119a565b9190505550818160405161044d9190611087565b60405180910390207f777e12406713e556f995ae7467576ea751d01f243ff84668ef43b36634f3fa8860405160405180910390a35050565b60605f60025467ffffffffffffffff8111156104a4576104a3610a92565b5b6040519080825280602002602001820160405280156104dd57816020015b6104ca6109ef565b8152602001906001900390816104c25790505b5090505f600190505b60025481116105eb5760045f8281526020019081526020015f206040518060600160405290815f82015481526020016001820180546105249061120e565b80601f01602080910402602001604051908101604052809291908181526020018280546105509061120e565b801561059b5780601f106105725761010080835404028352916020019161059b565b820191905f5260205f20905b81548152906001019060200180831161057e57829003601f168201915b50505050508152602001600282015481525050826001836105bc919061123e565b815181106105cd576105cc611271565b5b602002602001018190525080806105e39061119a565b9150506104e6565b508091505090565b6004602052805f5260405f205f91509050805f0154908060010180546106189061120e565b80601f01602080910402602001604051908101604052809291908181526020018280546106449061120e565b801561068f5780601f106106665761010080835404028352916020019161068f565b820191905f5260205f20905b81548152906001019060200180831161067257829003601f168201915b5050505050908060020154905083565b60025481565b6005818051602081018201805184825260208301602085012081835280955050505050505f915054906101000a900460ff1681565b60015f9054906101000a900473ffffffffffffffffffffffffffffffffffffffff1673ffffffffffffffffffffffffffffffffffffffff163373ffffffffffffffffffffffffffffffffffffffff1614610769576040517f08c379a0000000000000000000000000000000000000000000000000000000008152600401610760906112e8565b60405180910390fd5b60025f81548092919061077b9061119a565b9190505550604051806060016040528060025481526020018281526020015f81525060045f60025481526020019081526020015f205f820151815f015560208201518160010190816107cd91906114a6565b506040820151816002015590505050565b60015f9054906101000a900473ffffffffffffffffffffffffffffffffffffffff1673ffffffffffffffffffffffffffffffffffffffff163373ffffffffffffffffffffffffffffffffffffffff161461086d576040517f08c379a0000000000000000000000000000000000000000000000000000000008152600401610864906112e8565b60405180910390fd5b5f600160146101000a81548160ff0219169083151502179055507f562cd572b2ba3b666cd989fc4ca98419ec81e75f04528df9d9d76fdb7807ee716003546040516108b89190610a26565b60405180910390a1565b600160149054906101000a900460ff1681565b5f5f9054906101000a900473ffffffffffffffffffffffffffffffffffffffff1681565b60015f9054906101000a900473ffffffffffffffffffffffffffffffffffffffff1673ffffffffffffffffffffffffffffffffffffffff163373ffffffffffffffffffffffffffffffffffffffff1614610988576040517f08c379a000000000000000000000000000000000000000000000000000000000815260040161097f906112e8565b60405180910390fd5b805f5f6101000a81548173ffffffffffffffffffffffffffffffffffffffff021916908373ffffffffffffffffffffffffffffffffffffffff16021790555050565b60015f9054906101000a900473ffffffffffffffffffffffffffffffffffffffff1681565b60405180606001604052805f8152602001606081526020015f81525090565b5f819050919050565b610a2081610a0e565b82525050565b5f602082019050610a395f830184610a17565b92915050565b5f604051905090565b5f5ffd5b5f5ffd5b610a5981610a0e565b8114610a63575f5ffd5b50565b5f81359050610a7481610a50565b92915050565b5f5ffd5b5f5ffd5b5f601f19601f8301169050919050565b7f4e487b71000000000000000000000000000000000000000000000000000000005f52604160045260245ffd5b610ac882610a82565b810181811067ffffffffffffffff82111715610ae757610ae6610a92565b5b80604052505050565b5f610af9610a3f565b9050610b058282610abf565b919050565b5f67ffffffffffffffff821115610b2457610b23610a92565b5b610b2d82610a82565b9050602081019050919050565b828183375f83830152505050565b5f610b5a610b5584610b0a565b610af0565b905082815260208101848484011115610b7657610b75610a7e565b5b610b81848285610b3a565b509392505050565b5f82601f830112610b9d57610b9c610a7a565b5b8135610bad848260208601610b48565b91505092915050565b5f5f60408385031215610bcc57610bcb610a48565b5b5f610bd985828601610a66565b925050602083013567ffffffffffffffff811115610bfa57610bf9610a4c565b5b610c0685828601610b89565b9150509250929050565b5f81519050919050565b5f82825260208201905092915050565b5f819050602082019050919050565b610c4281610a0e565b82525050565b5f81519050919050565b5f82825260208201905092915050565b8281835e5f83830152505050565b5f610c7a82610c48565b610c848185610c52565b9350610c94818560208601610c62565b610c9d81610a82565b840191505092915050565b5f606083015f830151610cbd5f860182610c39565b5060208301518482036020860152610cd58282610c70565b9150506040830151610cea6040860182610c39565b508091505092915050565b5f610d008383610ca8565b905092915050565b5f602082019050919050565b5f610d1e82610c10565b610d288185610c1a565b935083602082028501610d3a85610c2a565b805f5b85811015610d755784840389528151610d568582610cf5565b9450610d6183610d08565b925060208a01995050600181019050610d3d565b50829750879550505050505092915050565b5f6020820190508181035f830152610d9f8184610d14565b905092915050565b5f60208284031215610dbc57610dbb610a48565b5b5f610dc984828501610a66565b91505092915050565b5f82825260208201905092915050565b5f610dec82610c48565b610df68185610dd2565b9350610e06818560208601610c62565b610e0f81610a82565b840191505092915050565b5f606082019050610e2d5f830186610a17565b8181036020830152610e3f8185610de2565b9050610e4e6040830184610a17565b949350505050565b5f60208284031215610e6b57610e6a610a48565b5b5f82013567ffffffffffffffff811115610e8857610e87610a4c565b5b610e9484828501610b89565b91505092915050565b5f8115159050919050565b610eb181610e9d565b82525050565b5f602082019050610eca5f830184610ea8565b92915050565b5f73ffffffffffffffffffffffffffffffffffffffff82169050919050565b5f610ef982610ed0565b9050919050565b610f0981610eef565b82525050565b5f602082019050610f225f830184610f00565b92915050565b610f3181610eef565b8114610f3b575f5ffd5b50565b5f81359050610f4c81610f28565b92915050565b5f60208284031215610f6757610f66610a48565b5b5f610f7484828501610f3e565b91505092915050565b7f4e6f7420617574686f72697a6564206b696f736b207369676e657200000000005f82015250565b5f610fb1601b83610dd2565b9150610fbc82610f7d565b602082019050919050565b5f6020820190508181035f830152610fde81610fa5565b9050919050565b7f456c656374696f6e206973206e6f7420616374697665000000000000000000005f82015250565b5f611019601683610dd2565b915061102482610fe5565b602082019050919050565b5f6020820190508181035f8301526110468161100d565b9050919050565b5f81905092915050565b5f61106182610c48565b61106b818561104d565b935061107b818560208601610c62565b80840191505092915050565b5f6110928284611057565b915081905092915050565b7f5468697320766f7465722049442068617320616c726561647920766f7465642e5f82015250565b5f6110d1602083610dd2565b91506110dc8261109d565b602082019050919050565b5f6020820190508181035f8301526110fe816110c5565b9050919050565b7f496e76616c69642063616e6469646174652e00000000000000000000000000005f82015250565b5f611139601283610dd2565b915061114482611105565b602082019050919050565b5f6020820190508181035f8301526111668161112d565b9050919050565b7f4e487b71000000000000000000000000000000000000000000000000000000005f52601160045260245ffd5b5f6111a482610a0e565b91507fffffffffffffffffffffffffffffffffffffffffffffffffffffffffffffffff82036111d6576111d561116d565b5b600182019050919050565b7f4e487b71000000000000000000000000000000000000000000000000000000005f52602260045260245ffd5b5f600282049050600182168061122557607f821691505b602082108103611238576112376111e1565b5b50919050565b5f61124882610a0e565b915061125383610a0e565b925082820390508181111561126b5761126a61116d565b5b92915050565b7f4e487b71000000000000000000000000000000000000000000000000000000005f52603260045260245ffd5b7f4f6e6c792061646d696e2063616e20646f2074686973000000000000000000005f82015250565b5f6112d2601683610dd2565b91506112dd8261129e565b602082019050919050565b5f6020820190508181035f8301526112ff816112c6565b9050919050565b5f819050815f5260205f209050919050565b5f6020601f8301049050919050565b5f82821b905092915050565b5f600883026113627fffffffffffffffffffffffffffffffffffffffffffffffffffffffffffffffff82611327565b61136c8683611327565b95508019841693508086168417925050509392505050565b5f819050919050565b5f6113a76113a261139d84610a0e565b611384565b610a0e565b9050919050565b5f819050919050565b6113c08361138d565b6113d46113cc826113ae565b848454611333565b825550505050565b5f5f905090565b6113eb6113dc565b6113f68184846113b7565b505050565b5b818110156114195761140e5f826113e3565b6001810190506113fc565b5050565b601f82111561145e5761142f81611306565b61143884611318565b81016020851015611447578190505b61145b61145385611318565b8301826113fb565b50505b505050565b5f82821c905092915050565b5f61147e5f1984600802611463565b1980831691505092915050565b5f611496838361146f565b9150826002028217905092915050565b6114af82610c48565b67ffffffffffffffff8111156114c8576114c7610a92565b5b6114d2825461120e565b6114dd82828561141d565b5f60209050601f83116001811461150e575f84156114fc578287015190505b611506858261148b565b86555061156d565b601f19841661151c86611306565b5f5b828110156115435784890151825560018201915060208501945060208101905061151e565b86831015611560578489015161155c601f89168261146f565b8355505b6001600288020188555050505b50505050505056fea2646970667358221220454407f5f8c4e876c55f7fd6f4aa4c37d538d045d6347d391c6cb65f12c2778c64736f6c634300081c0033",
  "linkReferences": {},
  "deployedLinkReferences": {},
  "immutableReferences": {},
  "inputSourceName": "project/contracts/VotingV2.sol",
  "buildInfoId": "solc-0_8_28-180cd4e069b3de86dc83a1ffc3862341d9ea8dab"
}